:020000040800F2
:10000000FCFF0020451400003D1400003D140000DA
:100010003D1400003D1400003D1400003D1400009C
:100020003D1400003D1400003D1400003D1400008C
:100030003D1400003D1400003D1400003D1400007C
:100040003D1400003D1400003D1400003D1400006C
:100050003D1400003D1400003D1400003D1400005C
:100060003D1400003D1400003D1400003D1400004C
:100070003D1400003D1400003D1400003D1400003C
:100080003D1400003D1400003D1400003D1400002C
:100090003D1400003D1400003D1400003D1400001C
:1000A0003D1400003D1400003D1400003D1400000C
:1000B0003D1400003D1400003D1400003D140000FC
:1000C0003D1400003D1400003D1400003D140000EC
:1000D0003D1400003D1400003D1400003D140000DC
:1000E0003D1400003D1400003D1400003D140000CC
:1000F0003D1400003D1400003D1400003D140000BC
:100100003D1400003D1400003D1400003D140000AB
:100110003D1400003D1400003D1400003D1400009B
:100120003D1400003D1400003D1400003D1400008B
:100130003D1400003D1400003D1400003D1400007B
:100140003D1400003D1400003D1400003D1400006B
:1001500001480068704700BF2000002083B0CDF840
:1001600000E000F0FF031A09104603F00F021346E7
:1001700014E0194A02921FE0184A02921CE0184A41
:10018000029219E0174A029216E0174A029213E00F
:10019000164A029210E0164A02920DE00028E8D0BA
:1001A0000128E9D00228EAD00328EBD00428ECD0BB
:1001B0000528EDD00628EED0012212B29A40ADF803
:1001C000042002980A46BDF8041000F07FFADDF81A
:1001D00000E003B0704700BF00080140000C014080
:1001E000001001400014014000180140001C0140B3
:1001F0000020014081B0194900EA010108460022AF
:100200000EE0042022E0082020E010201EE0202044
:100210001CE040201AE0802018E040F2001015E0B9
:100220000F498842EDD00F498842ECD00E498842F0
:10023000EBD00E498842EAD00D498842E9D00D49F9
:100240008842E8D00C498842E7D010460B4909683B
:1002500041EA000209490A6001B0704700FCFFFF53
:1002600000080140000C0140001001400014014052
:1002700000180140001C01400020014018100240FD
:1002800082B0CDF800E0034619460191FFF760FF08
:1002900040F2E83100FB01F201990A601F49097838
:1002A000C1F30311C8B21E4909180878C0B21A1D5B
:1002B0001968C140116019490988C1F3022188B247
:1002C000174909180878C0B203F20802191D096815
:1002D000C140116011490988C1F3C22188B2104997
:1002E00009180878C0B203F20C02191D0968C14050
:1002F00011600A490988C1F3813188B20949091896
:100300000978C8B203F2100203F20C010968B1FBCC
:10031000F0F11160DDF800E002B070470410024017
:10032000651700005C12000081B0CDF800E00122EA
:1003300052B23E490A6000F268010B686FF000613A
:1003400003EA0102144603F00061C90E0B4602F0F5
:100350000041B1F1004F02D135490A6801E0354949
:100360000A6804F47021090C0E464FF6FF7104EA86
:1003700001010D4604F44011B1F5401F0DD16FF09D
:10038000706102EA01010E462A490A686FF0706145
:100390000A4028490A60324616E004F48011B1F59B
:1003A000801F09D14FF00301B140C94302EA0101A6
:1003B00041F070610A4607E0610D090105FA01F19B
:1003C000C9430A4042F070622BB1610D090105FA80
:1003D00001F10A43FFE704F00041B1F1004F02D1FF
:1003E00013490A6001E013490A6040F2000A81469D
:1003F0004FEA8A0109EB01010968B1F1FF3F10D012
:1004000009F134014FEA8A03C91809680A4609EB61
:100410000301096808461146FFF7A0FE0AF1010A28
:10042000E6E7DDF800E001B0704700BF000342429C
:100430001C0001400400014081B00268C2F3401179
:1004400001B9FAE7011D096888B201B07047FFFFE2
:1004500081B00168C1F3401001B0704789B0CDF898
:1004600000E0834698B28C46BDF824100A9E04AC86
:10047000ADF80410ADF808002046FFF701FFBDF805
:100480000800BDF80410644CA34512D101256DB2DB
:10049000624C2560624D634C2560634D634C256062
:1004A000634D644C2560644D644C2560079C039447
:1004B00056E0634CA34512D101256DB2614C256015
:1004C000614D584C2560614D584C2560604D594C2C
:1004D0002560604D594C2560069C039440E05E4CBD
:1004E000A34512D101256DB25C4C25605C4D4D4C8D
:1004F00025605C4D4D4C25605B4D4E4C25605B4D41
:100500004E4C2560069C03942AE0594CA34512D119
:1005100001256DB2574C2560574D424C2560574D13
:10052000424C2560564D434C2560564D434C25604A
:10053000069C039414E0544CA34511D101256DB2DF
:10054000524C2560524D374C2560524D374C25603A
:10055000514D384C2560514D384C2560069C039414
:10056000ADF80410ADF808003046FFF7DDFEBDF829
:100570000800BDF804100BF1100500242C600BF1ED
:1005800010052C680C432C600BF10C0500242C602A
:1005900018B140F4806080B2FFE70BF10C052C68C5
:1005A00004432C600BF10C060125346865F34D34CF
:1005B00034600BF10C060125346865F3C304346024
:1005C0000BF10C060125346865F3820434600BF1ED
:1005D000140500242C60039D192465434FEA8C0404
:1005E000B5FBF4F76424B7FBF4F426013509642461
:1005F0006C433C1B240104F232056424B5FBF4F483
:1006000004F00F0446EA04040BF10805A4B22C60C0
:10061000DDF800E009B0704700380140380342427D
:1006200029090000240000204509000028000020BE
:10063000D90800002C000020C10800003000002074
:1006400000440040C40342420D090000850A000036
:100650006D0A0000C509000000480040C80342427E
:10066000F1080000AD09000095090000F50900003F
:10067000004C0040CC03424279090000DD09000033
:100680000D0A00009D0A000000500040D0034242C5
:100690005D090000250A00003D0A0000550A00001F
:1006A00081B00168C1F3801001B0704781B0ADF82E
:1006B00000100146BDF800000B68C3F3C01202B978
:1006C000FAE70A1D106001B07047FFFF81B0CDF856
:1006D00000E08CB21546774B00EA03031E4618462D
:1006E000FFF788FDB4F1FF0F0CD1734B9D4203D18E
:1006F0004FF033333360D9E0422D03D14FF0443310
:100700003360D3E04FF6FF739C4214D16A4B9D4295
:1007100007D14FF033333360341D4FF03333236050
:10072000C4E0422D07D14FF044333360341D4FF005
:1007300044332360BAE00021002005F001030BB12F
:1007400000211DE005F0020333B105F4C0730BB1C5
:10075000082100E0042113E005F0040333B105F0A3
:1007600020030BB1042100E0002109E005F008039B
:1007700033B105F020030BB10C2100E00821FFE7A5
:100780004E4B05EA03030BB1032009E005F40073A7
:100790000BB1022004E005F480630BB10120FFE7F8
:1007A00005F00C030BB10143FFE704F0FF039BB21C
:1007B000002B3BD0376800201FFA84F832462E46C3
:1007C00008282CD24FF0010303FA00F408EA0403CE
:1007D000A34222D185004FF00F03AB40DB4307EA71
:1007E000030401FA05F344EA03031D4606F481738A
:1007F000B3F5817F05D102F214044FF00103834069
:10080000236006F08203822B05D102F210044FF020
:100810000103834023602F46FFE7401CD0E71760A9
:100820001FFA88F00F463146164602E00F46294669
:10083000A0B2B0F1FF0F39D9331DD3F800800022E8
:10084000082A30D202F208044FF0010303FA04F43C
:1008500000EA0403A34224D195004FF00F03AB40FC
:10086000DB4308EA030807FA05F348EA030801F442
:100870008173B3F5817F07D106F2140502F20804F3
:100880004FF00103A3402B6001F08203822B07D1BC
:1008900006F2100502F208044FF00103A3402B609A
:1008A000FFE7521CCCE7331DC3F80080DDF800E001
:1008B00001B0704700FCFFFF1400080000080800AA
:1008C00081B0CDF800E00348FFF7EAFEDDF800E074
:1008D00001B070470038014081B0CDF800E0034816
:1008E000FFF7B6FDDDF800E001B0704700380140C9
:1008F00081B0CDF800E081B20348FFF7D7FEDDF804
:1009000000E001B0704700BF0048004081B0CDF862
:1009100000E081B20348FFF7C9FEDDF800E001B056
:10092000704700BF0044004081B0CDF800E081B2C4
:100930000348FFF7BBFEDDF800E001B0704700BFE1
:100940000038014081B0CDF800E00348FFF774FDA6
:10095000DDF800E001B070470038014081B0CDF80B
:1009600000E081B20348FFF7A1FEDDF800E001B02E
:10097000704700BF0050004081B0CDF800E081B268
:100980000348FFF793FEDDF800E001B0704700BFB9
:10099000004C004081B0CDF800E00348FFF758FD5F
:1009A000DDF800E001B070470048004081B0CDF8AC
:1009B00000E00348FFF740FDDDF800E001B07047BC
:1009C0000048004081B0CDF800E00348FFF768FE22
:1009D000DDF800E001B070470044004081B0CDF880
:1009E00000E00348FFF728FDDDF800E001B07047A4
:1009F000004C004081B0CDF800E00348FFF750FE06
:100A0000DDF800E001B070470048004081B0CDF84B
:100A100000E00348FFF71CFDDDF800E001B070477F
:100A2000004C004081B0CDF800E00348FFF704FD22
:100A3000DDF800E001B070470050004081B0CDF813
:100A400000E00348FFF704FDDDF800E001B0704767
:100A50000050004081B0CDF800E00348FFF720FED1
:100A6000DDF800E001B070470050004081B0CDF8E3
:100A700000E00348FFF7ECFCDDF800E001B0704750
:100A80000044004081B0CDF800E00348FFF7D4FCFB
:100A9000DDF800E001B070470044004081B0CDF8BF
:100AA00000E00348FFF7FCFDDDF800E001B070470F
:100AB000004C004081B0CDF800E0044A89B2FFF755
:100AC00005FEDDF800E001B0704700BF140008002B
:100AD00081B0CDF800E0019D2C4610B408B493B26B
:100AE0008AB201460348FFF7B9FC02B0DDF800E026
:100AF00001B070470048004081B0CDF800E0019D92
:100B00002C4610B408B493B28AB201460348FFF7EA
:100B1000A5FC02B0DDF800E001B0704700380140EC
:100B200081B0CDF800E04FF0420289B2FFF7CEFD70
:100B3000DDF800E001B0704781B0CDF800E0019D24
:100B40002C4610B408B493B28AB201460348FFF7AA
:100B500085FC02B0DDF800E001B0704700440040C1
:100B600081B0CDF800E0094902B440F2000340F240
:100B7000000240F20001FFF7ABFF01B0044A054953
:100B80000A600020DDF800E001B070471416000094
:100B9000F10800001C00002081B0CDF800E00B4DF2
:100BA00000F20C010C6800F208010B68011D0A68D4
:100BB0000168084691B29AB2A3B220B4FFF7BCFF15
:100BC00001B00020DDF800E001B07047A81500007A
:100BD00081B0CDF800E0044C2468A047C0B2DDF835
:100BE00000E001B0704700BF3C00002081B0CDF8AC
:100BF00000E0034C2468A047DDF800E001B0704736
:100C00003400002081B0CDF800E0A9E0012905D131
:100C100040F210016548FFF783FF04E040F2100145
:100C20006248FFF747FFBBE0012905D140F204010C
:100C30005F48FFF775FF04E040F204015C48FFF7EE
:100C400039FFADE0012905D142F200015948FFF713
:100C500067FF04E042F200015648FFF72BFF9FE0D8
:100C6000012905D140F200415148FFF759FF04E046
:100C700040F200414E48FFF71DFF91E0012905D1E8
:100C800040F600014A48FFF74BFF04E040F6000140
:100C90004748FFF70FFF83E0012905D141F200012A
:100CA0004348FFF73DFF04E041F200014048FFF7F1
:100CB00001FF75E0012905D140F201013B48FFF732
:100CC0002FFF04E040F201013848FFF7F3FE67E030
:100CD000012905D140F200413648FFF721FF04E029
:100CE00040F200413348FFF7E5FE59E0012905D104
:100CF00040F200212F48FFF713FF04E040F20021EB
:100D00002C48FFF7D7FE4BE0012905D140F2001136
:100D10002848FFF705FF04E040F200112548FFF7DF
:100D2000C9FE3DE0012905D140F240012248FFF70C
:100D3000F7FE04E040F240011F48FFF7BBFE2FE042
:100D4000012905D140F280011B48FFF7E9FE04E0CC
:100D500040F280011848FFF7ADFE21E0012020E0BD
:100D600000283FF453AF01283FF45EAF02283FF460
:100D700069AF03283FF474AF04283FF47FAF052820
:100D80003FF48AAF06283FF495AF0728A0D0082883
:100D9000ACD00928B8D00A28C4D00B28D0D0DDE7C1
:100DA0000020DDF800E001B0704700BF00080140FE
:100DB0000010014000140140000C014081B0CDF84A
:100DC00000E00B4D00F20C010C6800F208010B680A
:100DD000011D0A680168084691B29AB2A3B220B414
:100DE000FFF776FE01B00020DDF800E001B07047AB
:100DF0001416000081B0CDF800E0A9E0012905D16A
:100E000040F220016548FFF78BFE04E040F220012C
:100E10006248FFF74FFEBBE0012905D140F208010F
:100E20005F48FFF77DFE04E040F208015C48FFF7F1
:100E300041FEADE0012905D144F200015948FFF718
:100E40006FFE04E044F200015648FFF733FE9FE0D6
:100E5000012905D140F200415148FFF761FE04E04D
:100E600040F200414E48FFF725FE91E0012905D1EF
:100E700040F600014A48FFF753FE04E040F6000147
:100E80004748FFF717FE83E0012905D141F2000131
:100E90004348FFF745FE04E041F200014048FFF7F8
:100EA00009FE75E0012905D141F200013D48FFF737
:100EB00037FE04E041F200013A48FFF7FBFD67E02E
:100EC000012905D140F600013648FFF729FE04E06C
:100ED00040F600013348FFF7EDFD59E0012905D147
:100EE00040F240012F48FFF71BFE04E040F24001B2
:100EF0002C48FFF7DFFD4BE0012905D140F220012E
:100F00002848FFF70DFE04E040F220012548FFF7D6
:100F1000D1FD3DE0012905D140F240012248FFF713
:100F2000FFFD04E040F240011F48FFF7C3FD2FE042
:100F3000012905D140F280011B48FFF7F1FD04E0D3
:100F400040F280011848FFF7B5FD21E0012020E0C4
:100F500000283FF453AF01283FF45EAF02283FF46E
:100F600069AF03283FF474AF04283FF47FAF05282E
:100F70003FF48AAF06283FF495AF0728A0D0082891
:100F8000ACD00928B8D00A28C4D00B28D0D0DDE7CF
:100F90000020DDF800E001B0704700BF000801400C
:100FA0000010014000140140000C014081B0CDF858
:100FB00000E0094902B440F2000340F2000240F2AE
:100FC0000001FFF7B9FD01B0044A05490A6000209D
:100FD000DDF800E001B07047A81500000D09000021
:100FE0001C00002081B0CDF800E0094902B440F2B5
:100FF000000340F2000240F20001FFF79DFD01B046
:10100000044A05490A600020DDF800E001B070479D
:10101000A81500000D0900001C00002081B0CDF8CB
:1010200000E00178CCB2A0B2034C2468A0470020B5
:10103000DDF800E001B070471C000020026806499E
:101040000A60011D0A6805490A6000F208010A6881
:1010500003490A60704700BF340000203C000020B4
:101060003800002000F230011C310A6803490A6090
:1010700000F208010A6802490A6070474000002037
:101080004400002081B0CDF800E0044C2468A04763
:10109000C0B2DDF800E001B0704700BF38000020AA
:1010A00081B0CDF800E0094902B440F2000340F2FB
:1010B000000240F20001FFF71FFD01B0044A05499C
:1010C0000A600020DDF800E001B0704780160000E3
:1010D000290900001C00002083B0CDF800E0024682
:1010E00010460D228DF808200A228DF809201FE0F5
:1010F000FFF794FF23E002782AB10190FFF78EFFFB
:101100000198401CF7E71AE002782AB10190FFF736
:1011100085FF0198401CF7E702AA1046FFF77EFF03
:101120000DF109021046FFF779FF08E0062007E0FD
:101130000029DDD00129DED00229E5D0F6E7002024
:10114000DDF800E003B0704781B0CDF800E05FFA51
:1011500081F95FFA82FA0FE05FFA8AF15FFA89F0AB
:10116000FFF750FD0DE05FFA8AF15FFA89F0FFF7B3
:1011700041FE06E0012004E00028EDD00128F2D075
:10118000F8E7DDF800E001B07047FFFF81B0CDF86F
:1011900000E0FFF72BFDDDF800E001B07047FFFF36
:1011A00081B0CDF800E0FFF713FDDDF800E001B0FD
:1011B0007047FFFF81B0CDF800E009E00846FFF777
:1011C000FDFD0AE00846FFF7E7FC06E0012004E029
:1011D0000028F3D00128F5D0F8E7DDF800E001B0F1
:1011E0007047FFFF81B0CDF800E0FFF74BFFDDF85F
:1011F00000E001B07047FFFF81B0CDF800E011E0E2
:101200000846FFF7ADFC16E00846FFF7CFFE12E0F8
:101210000846FFF745FF0EE00846FFF7E3FE0AE049
:10122000012008E00028EBD00128EDD02028EFD0E5
:101230003028F1D0F4E7DDF800E001B07047FFFF9F
:1012400081B0CDF800E003460846FFF7F7FE1846E8
:10125000FFF708FFDDF800E001B070470204060860
:1012600082B0CDF800E0FFF7BDFF012807D1FFF7FE
:1012700097FF8DF8040001A80021FFF72DFF002043
:101280008DF804009DF80400092810D29DF8041080
:101290000E4840180078FFF779FF0D480221FFF74C
:1012A0001BFF9DF80400401C8DF80400EAE743F2A0
:1012B000FF57C0F26E1700BF00BF7F1EFDD100BFF9
:1012C00000BF00BFDDF800E002B0704794170000D7
:1012D0000C000020FFFFFFFF81B0CDF800E00B49BC
:1012E0000B48FFF7ADFF0B480221FFF7F5FE44F670
:1012F0007F77C0F2120700BF00BF7F1EFDD100BF85
:1013000000BF00BFDDF800E001B0704788170000A3
:10131000EC1600000000002081B01548006840F085
:101320000101134801601349134801601048016826
:10133000124801400E4801600D4801686FF480209A
:1013400001400B4801600C4801686FF4FE00014049
:1013500009480160064801686FF0A0500140044848
:1013600001604FF000010648016001B0704700BF06
:10137000001002400000FFF004100240FFFFF6FEE4
:101380002C10024081B01CF8019B0BF8019BBBEBB9
:101390000A0FF8D101B0704781B04FF000094FF04B
:1013A000000CBDEB0A0F04DCBDEB0B0F01DBD446D8
:1013B000EA464BF8049BBBEB0A0FFAD1BCEB0A0FD1
:1013C00005DDE246D9F800B00BF1040BF1E701B0FE
:1013D0007047FFFFFFFFFFFF81B0CDF800E0012263
:1013E00007210020FFF7B0FE002202210020FFF7B6
:1013F000ABFE0C4801460020FFF7DCFE42F28051B4
:101400002020FFF7F9FE44F67F77C0F2120700BFF5
:1014100000BF7F1EFDD100BF00BF00BFDDF800E0B0
:1014200001B070477817000081B00249024801609E
:1014300001B07047401901002000002081B0FEE794
:1014400001B0704700F00EF800F0EAF9FFF7ECFF8A
:1014500000F0A6F9FFF7C0FFFFF73EFFFFF700FF20
:10146000FCE7FEE781B0CDF800E0464A464B474C2A
:1014700047494BF68030814206D94648006840F023
:1014800002014448016011E045F6C050814206D98E
:101490004048006840F001013E48016006E03D48D8
:1014A00001686FF0070001403A480160FFF734FF20
:1014B0003948036039480460394802EA0001394874
:1014C000016002F0010040B119463648006800F0A2
:1014D0000200002800D1F8E700E0194602F480304D
:1014E00040B10B462F48006800F40030002800D1BE
:1014F000F8E700E00B4602F0805068B12948006828
:1015000040F08051274801602648006800F00050F4
:10151000002800D1F8E7FFE702F0806078B12148A9
:10152000006840F080611F48016011461A461D485E
:10153000006800F00060002800D1F8E701E01146E3
:101540001A4601F0807070B11648006840F0807152
:101550001448016011461348006800F0007000B99B
:10156000F9E70A46FFE70C48006800F00C0190001C
:1015700000F00C00814200D0F5E7DDF800E001B09A
:10158000704700BF8100010502841D004406010070
:101590004019010000200240041002402C100240BB
:1015A000FFFF0F0000100240350000003600000071
:1015B000FFFFFFFF0000000000000000000000002F
:1015C000000000000000000000000000000000001B
:1015D00000000000000000000000000018080000EB
:1015E00018000000000000000000000000000000E3
:1015F00000000000000000000000000000000000EB
:1016000000000000000000000000000000000000DA
:10161000080000083800000039000000FFFFFFFF4D
:1016200000000000000000000000000000000000BA
:1016300000000000000000000000000000000000AA
:101640000000000000000000180800001800000062
:10165000000000000000000000000000000000008A
:10166000000000000000000000000000000000007A
:10167000000000000000000000000000300014081E
:10168000090000000A000000FFFFFFFF000000004B
:10169000000000000000000000000000000000004A
:1016A000000000000000000000000000000000003A
:1016B00000000000180800001800000000000000F2
:1016C000000000000000000000000000000000001A
:1016D000000000000000000000000000000000000A
:1016E000000000000000000004000000FFFFFFFFFA
:1016F000FFFFFFFFFFFFFFFFFFFFFFFFFFFFFFFFFA
:10170000FFFFFFFFFFFFFFFFFFFFFFFFFFFFFFFFE9
:10171000FFFFFFFFFFFFFFFFFFFFFFFFFFFFFFFFD9
:10172000FFFFFFFFFFFFFFFFFFFFFFFFFFFFFFFFC9
:10173000FFFFFFFFFFFFFFFFFFFFFFFFFFFFFFFFB9
:10174000FFFFFFFFFFFFFFFFFFFFFFFF496E697411
:1017500069616C697A6564004D4553534147452082
:1017600053454E540000000000010203040102032F
:101770000406070809FFFFFF8025000000000000A5
:101780000000000000000000F1080000AD090000AA
:10179000950900004D696B726F450D0A00FFFFFF50
:1017A00000B5DFF814B0DFF814A0DFF814C0FFF7BD
:1017B000E9FD00BD704700BF0000002019000020B7
:1017C0004C170000FFFFFFFFFFFFFFFFFFFFFFFFC2
:1017D000FFFFFFFFFFFFFFFFFFFFFFFFFFFFFFFF19
:1017E000FFFFFFFFFFFFFFFFFFFFFFFFFFFFFFFF09
:1017F000FFFFFFFFFFFFFFFFFFFFFFFFFFFFFFFFF9
:10180000FFFFFFFFFFFFFFFFFFFFFFFFFFFFFFFFE8
:10181000FFFFFFFFFFFFFFFFFFFFFFFFFFFFFFFFD8
:1018200000B5DFF810B0DFF810A0FFF7B5FD00BD80
:10183000704700BF0000002048000020FFFFFFFFAE
:00000001FF
